:020000022000DC
:107000000000042071730200597302005B730200D8
:107010005D7302005F7302006173020000000000F4
:107020000000000000000000000000006373020088
:1070300065730200000000006773020069730200BC
:107040005DA202006B730200FDAF02006B730200D1
:107050006B7302006B730200F5AE02006B730200EB
:107060006B7302006B7302006B7302006B730200A0
:107070006B7302006B7302006B7302006B73020090
:107080006B730200098C02006B7302006B730200C9
:107090006B7302006B7302001DBE02006B73020073
:1070A0006B7302006B7302006B7302006B73020060
:1070B0006B7302006B730200000000000000000010
:1070C0006B7302006B7302006B7302006B73020040
:1070D0006B7302006B7302006B7302006B73020030
:1070E0006B7302006B7302006B7302000000000000
:1070F000000000006B730200000000006B730200D0
:10710000000000000000000000000000000000007F
:10711000000000000000000000000000000000006F
:10712000000000000000000000000000000000005F
:10713000000000000000000000000000000000004F
:10714000000000000000000000000000000000003F
:10715000000000000000000000000000000000002F
:10716000000000000000000000000000000000001F
:10717000000000000000000000000000000000000F
:1071800000000000000000000000000000000000FF
:1071900000000000000000000000000000000000EF
:1071A00000000000000000000000000000000000DF
:1071B00000000000000000000000000000000000CF
:1071C00000000000000000000000000000000000BF
:1071D00000000000000000000000000000000000AF
:1071E000000000000000000000000000000000009F
:1071F000000000000000000000000000000000008F
:10720000344935480A1A02D0072291438D46334942
:1072100033480A1A06D00722914381F309880222D3
:1072200082F314882F483049304A00F041F8304842
:107230003049314A00F03CF830483149314A00F0D9
:1072400037F831483149324A00F032F83148324992
:10725000324A00F02DF832483249334A00F028F81B
:1072600032483349334A00F023F833483349002287
:1072700000F029F832483349002200F024F832485F
:107280003249091A05F004F8314A90471F4820494D
:10729000884205D00268043003B4904703BCF7E786
:1072A00000208646EC46002000212A4A9047FEE74F
:1072B000884207D0521A05D0037801300B70013193
:1072C000013AF9D17047884202D002700130FAE7E2
:1072D000704700000000042000E0032000000420AC
:1072E000000004207CCC0200D8180020981900204F
:1072F000CC730200CC730200A4C202007CCC02005A
:10730000D8180020D8180020CCC20200CCC202003D
:10731000CCC20200CCC20200CCC20200CCC202002D
:10732000CCC20200CCC202007CCC02003CCD0200E8
:10733000981900209819002098190020641B00203B
:10734000641B0020641B0020641B0020643B0020A1
:107350009973020057BA0200FEE7FEE7FEE7FEE778
:10736000FEE7FEE7FEE7FEE7FEE7FEE700F002B815
:10737000FFF7FCBF0F484FF00701884385460E48D2
:1073800080470E48016841F470010160BFF34F8FE0
:10739000BFF36F8FFFF734BF09480A490A4A884292
:1073A00007D0521A05D0037801300B700131013A31
:1073B000F9D17047000004204995020088ED00E0F3
:0C73C000CCC20200D8180020D818002011
:1073CC0084B003468DF807309DF807305B08DBB2BC
:1073DC001A460D4B9B5C8DF80F309DF8073003F06F
:1073EC000103002B04D09DF80F301B09DBB204E025
:1073FC009DF80F3003F00F03DBB28DF80E309DF8C3
:10740C000E30184604B07047B019002084B0034603
:10741C000A468DF8073013468DF806309DF8073074
:10742C0003F00103002B01D00F2300E0F0238DF8B3
:10743C000F309DF8073003F00103002B04D09DF8AA
:10744C0006301B01DBB201E09DF806308DF80E30E2
:10745C009DF807305B08DBB21A46114B9A5C9DF81D
:10746C0007305B08DBB219469DF80F301340DAB2D7
:10747C000B4B5A549DF807305B08DBB21A46084B8D
:10748C009A5C9DF807305B08DBB219469DF80E300C
:10749C001343DAB2024B5A5400BF04B0704700BF1A
:1074AC00B019002000B585B003468DF807300023D5
:1074BC00039310E00F4B1A68039BDB0013440293F9
:1074CC00029B1B789DF807209A4201D1029B0DE08C
:1074DC00039B01330393084B1B781A46039B93427F
:1074EC00E8DB0649882001F097FB0023184605B01D
:1074FC005DF804FB981900209C190020D0C20200F2
:10750C0000B585B003460A468DF8073013468DF852
:10751C0006309DF807301846FFF7C4FF0390039B15
:10752C00002B0BD0039B5B68002B07D0039B5B6885
:10753C009DF806109DF807201046984700BF05B02F
:10754C005DF804FB2DE9F04F87B003460A468DF831
:10755C000F3013468DF80E309DF80F301846FFF79C
:10756C002FFF0346042B00F2C28001A252F823F035
:10757C009175020005760200217602005176020018
:10758C00677602009DF80E30002B00F0AD809DF860
:10759C000F3001211846FFF739FF00238DF8173003
:1075AC000DF11703184600F01BFF9DF80F104FF05C
:1075BC0001024FF00003A1F12004C1F1200003FAF5
:1075CC0001F702FA04F4274322FA00F0074302FA07
:1075DC0001F6494BD3E9002346EA020100913B43F3
:1075EC000193454BDDE90012C3E900129DF81730F9
:1075FC00184600F00BFF77E09DF80E30002B01D001
:10760C00022200E000229DF80F3011461846FFF7C9
:10761C00FDFE6CE09DF80E30002B0CD09DF80F3069
:10762C0003211846FFF7F2FE9DF80F300121184692
:10763C00FFF766FF5BE09DF80F3001211846FFF75E
:10764C00E5FE54E09DF80E30002B4FD19DF80F3025
:10765C0004211846FFF7DAFE48E09DF80E30002BA7
:10766C0006D09DF80F3003211846FFF7CFFE3EE001
:10767C009DF80F3000211846FFF7C8FE9DF80F301B
:10768C0000211846FFF73CFF00238DF816300DF152
:10769C001603184600F0A4FE9DF80F104FF00102DF
:1076AC004FF00003A1F12006C1F1200003FA01F50F
:1076BC0002FA06F6354322FA00F0054302FA01F409
:1076CC006FEA04086FEA05090B4BD3E9002308EABB
:1076DC00020A09EA030B084BC3E900AB9DF816300C
:1076EC00184600F093FE02E000BF00E000BF00BFB0
:1076FC0007B0BDE8F08F00BFA819002000B583B01B
:10770C000648074B1B685B080022194600F040FD39
:10771C00019000BF03B05DF804FB00BFD818002037
:10772C00A019002000B587B001900023059328E034
:10773C001C4B1A68059BDB0013440493049B1B78B9
:10774C00184603F021FB03468DF80F30049B5B7841
:10775C00012B0CBF01230023DBB21A469DF80F301E
:10776C009A420CBF012300238DF80E30049B1B782A
:10777C009DF80E2011461846FFF7E4FE059B0133D9
:10778C000593094B1B781A46059B9342D0DB074B9C
:10779C00D3E90023134301D0FFF7B0FF00BF07B0BC
:1077AC005DF804FB981900209C190020A8190020F2
:1077BC0000B585B001900B468DF80330019BDBB210
:1077CC001846FFF76FFE0390039B1B78184603F0D7
:1077DC00DBFA03468DF80B30039B5B78012B0CBF57
:1077EC0001230023DBB21A469DF80B309A420CBFE2
:1077FC00012300238DF80A309DF80A30002B06D0A7
:10780C00054BD3E90023134301D1FFF777FF00BFEA
:10781C0005B05DF804FB00BFA819002000B58BB0C3
:10782C0003900B4601928DF80B30019B092B01D86C
:10783C00072367E003F09CF9034683F00103DBB2F6
:10784C00002B09D003F030F90990099B0893089B91
:10785C00002B01D0089B55E02C4A039B13602C4A4B
:10786C009DF80B3013702B4A019B136020220021D2
:10787C00294804F0D5FC29494FF000024FF00003D1
:10788C00C1E9002331E09DF80B30DB00039A13446F
:10789C00079303238DF8143000238DF815309DF8D1
:1078AC0016306FF300038DF816309DF816306FF319
:1078BC0041038DF816309DF816306FF382038DF866
:1078CC001630079B9B788DF81530079B1B78184654
:1078DC0005AB134A194603F057F90990099B069317
:1078EC00069B002B01D0069B0CE09DF80B305A1E1A
:1078FC008DF80B20002BC6D10A4A00210A4800F053
:10790C000DFC034618460BB05DF804FB98190020DB
:10791C009C190020A0190020B0190020A8190020E3
:10792C00BD77020031770200CCC2020000B583B0F3
:10793C00114B1B68002B04D1104940F2351001F09B
:10794C006BF9002301930CE00B4B1A68019BDB00D5
:10795C0013441B780121184603F092F9019B013363
:10796C000193074B1B781A46019B9342ECD30023DF
:10797C00184603B05DF804FB98190020D0C2020031
:10798C009C19002086B003900291019201238DF87E
:10799C0017309DF81730204A039B13601E4A029B38
:1079AC0053601D4A019B9360039B44F20102934276
:1079BC0012D0039B44F20202934220D1019B164A3F
:1079CC00D360154BDB681B68134A9361124BDB6861
:1079DC005B68114AD36112E0019B0F4A13610E4B95
:1079EC001B699B680C4A53610B4B1B691B680A4A49
:1079FC009361094B1B695B68074AD36100BF72B680
:107A0C0000BF00BF9DF81730DBB2002BFAD162B675
:107A1C0000BF00BF06B07047D019002000B583B07E
:107A2C0002900091019244F2010071466A4600F006
:107A3C0003F803B000BD00BF00B587B003900291FE
:107A4C00019272B600BF039B44F20202934217D01C
:107A5C00039B44F20202934218D8039B44F20102A6
:107A6C00934210D0039B44F2010293420ED8039B25
:107A7C00012B0DD0039B41F2010293420AD005E089
:107A8C00019B059307E0019B049304E000BF02E017
:107A9C0000BF00E000BF084B1B6803F00103002B84
:107AAC0000D000BE019A02990398FFF76BFF00BF4C
:107ABC0007B05DF804FB00BFF0ED00E02DE9F043EA
:107ACC0083B0144801F07FF8034600221C4615468B
:107ADC00114BD3E9002314EB020845EB0309CDE964
:107AEC0000890E4BD3E90023DDE90001904271EBD4
:107AFC00030307D2DDE9002312F1807643F100077E
:107B0C00CDE90067DDE900231046194603B0BDE856
:107B1C00F08300BFF8180020F8190020001A00208C
:107B2C0088B001900091019B0793009B0693079BE3
:107B3C00D3E90223CDE90423069BD3E90223CDE943
:107B4C000223DDE90423DDE90201904271EB03031A
:107B5C002CBF01230023DBB2184608B0704700008D
:107B6C00F0B585B00190019B5B69002B03D14349B3
:107B7C00A52001F051F800238DF80F30404B1B78F5
:107B8C00002B75D0019B002B72D0FFF797FF019B48
:107B9C00D3E90223904271EB030358D300238DF8F1
:107BAC000D300DF10D03184600F01AFC019B1B69FA
:107BBC00002B06D101994FF0FF324FF0FF33C1E992
:107BCC0002239DF80D30184600F020FC019B5B69E8
:107BDC00019A92691046984700238DF80C3003AB3C
:107BEC00184600F0FDFB019B1B69002B1AD0019B72
:107BFC00D3E90223B3F1FF3F08BFB2F1FF3F11D02D
:107C0C00019BD3E902230199096900200C46054622
:107C1C00161943EB0507019BC3E9026701238DF895
:107C2C000E3002E000238DF80E309DF80C30184613
:107C3C0000F0ECFB9DF80E30002B19D0019B19467F
:107C4C00104801F0FBF901238DF80F3010E0019B77
:107C5C00D3E90223B3F1FF3F08BFB2F1FF3F07D0D6
:107C6C00019B1946074801F0E9F901238DF80F3003
:107C7C009DF80F30184605B0F0BD00BF34C30200AC
:107C8C00F419002028C3020030B58BB0019000918C
:107C9C000D230993009B00221A70019BD3E9022348
:107CAC00CDE90623FFF70AFFDDE90623141A63EB7F
:107CBC000105CDE90445DDE90423012A73F1000334
:107CCC0018DB049BB3F5350F05D300F00BFB024614
:107CDC00144B134400E0069B03934FF49603039A52
:107CEC000021114800F062FE0990099B002B05D180
:107CFC00012314E000210C4800F030FF099B0D2BF0
:107D0C0007D10198FFF72CFF03461A46009B1A7007
:107D1C0004E006494FF4867000F07EFF00231846FD
:107D2C000BB030BDFFFFB400F818002034C30200C4
:107D3C0000B583B0044801F0BBF90190019B1846D3
:107D4C0003B05DF804FB00BF28C3020000B583B08C
:107D5C00044801F0CFF90190019B184603B05DF87F
:107D6C0004FB00BF28C3020000B583B0FFF7E0FF9F
:107D7C000190019B002B06D001994FF0FF324FF080
:107D8C00FF33C1E90223019B002BEFD100BF00BFE1
:107D9C0003B05DF804FB0000054BD3E9002312F19E
:107DAC00807043F10001024BC3E9000100BF704732
:107DBC00F819002010B582B00190124B1B68002BF3
:107DCC001DD0019800F0FFFE04460021019800F040
:107DDC00EBFE03461946204600F078FA0346B3F54D
:107DEC00960F04D3084940F2411000F015FF054BE3
:107DFC001B681846FFF7B4FE024B00221A6000BF46
:107E0C0002B010BDF019002034C3020000B583B0DD
:107E1C000190FFF753FE02460B460349C1E90023CC
:107E2C0000BF03B05DF804FB001A002000B587B05A
:107E3C000190FFF78BFF049000238DF81730049B03
:107E4C00002B58D0049BD3E90223B3F1FF3F08BFAA
:107E5C00B2F1FF3F02D1FFF76BFF54E02E4B1B68D2
:107E6C00002B03D101238DF817301DE0049BD3E9BF
:107E7C000201294B1B68D3E90223904271EB0303E7
:107E8C0012D201238DF81730234B1B68D3E9022340
:107E9C00B3F1FF3F08BFB2F1FF3F05D01E4B1B688B
:107EAC0019461E4801F0CAF89DF81730002B2BD04C
:107EBC00FFF73EFF04900DF10F0319460498FFF7EE
:107ECC00E3FE0346002B12D0134B1B68002B02D190
:107EDC00019800F077FC104A049B13609DF80F305A
:107EEC0083F00103DBB2002BA3D000BF0FE00A4BE1
:107EFC0000221A609DE7084B1B68002B06D10198E5
:107F0C0000F076FC02E094E700BF00E000BF00BF89
:107F1C0007B05DF804FB00BFF019002028C3020075
:107F2C0000B587B001902B4A03AB1946104600F000
:107F3C005EFF059045E0059B1B78022B2BD0022B96
:107F4C002FDC002B02D0012B11D02AE0059B5B68A3
:107F5C00D3E90223B3F1FF3F08BFB2F1FF3F22D0B8
:107F6C00059B5B6819461C4801F068F81BE0059BF3
:107F7C005A681A4B1B689A4203D1184B00221A609C
:107F8C0012E0059B5B681946134801F0C7F80346DD
:107F9C008DF8133008E0FFF7E7FE114B01221A7041
:107FAC0002E000BF00E000BF0A4A03AB19461046CE
:107FBC0000F036FF074A03AB1946104600F017FFD6
:107FCC000590059B002BB6D100BF00BF07B05DF834
:107FDC0004FB00BF601A002028C30200F019002027
:107FEC00F419002000B583B00190019800F0A9FDB0
:107FFC000346002B01D0FFF7CFFE0021019800F0C3
:10800C00BEFD0346002B02D00198FFF7D3FE0121E1
:10801C00019800F0B4FD0346002B02D00198FFF745
:10802C00F5FE0198FFF77CFF0198FFF7FFFE00BFFC
:10803C0003B05DF804FB000008B5024800F0D0FD69
:10804C0000BF08BDF818002000B585B003460091AC
:10805C008DF80730114A02AB1946104600F09AFE13
:10806C000390039B002B13D0039B9DF807201A70E1
:10807C00039B009A5A60094A02AB1946104600F05D
:10808C00A2FE0346002B01D0FFF7D6FF002300E031
:10809C000423184605B05DF804FB00BF601A0020ED
:1080AC0000B583B0164B1B68009316480823582262
:1080BC00154900F03CFE0190019B002B01D0019B67
:1080CC0019E06B46114A1946114800F01BFB019050
:1080DC00019B002B01D0019B0DE001210C4800F00D
:1080EC001FFD01230B4A0121094800F097FB0A4BA5
:1080FC0001221A70019B184603B05DF804FB00BF07
:10810C008CC30200601A0020081A0020F17F0200C4
:10811C00F8180020FFFF7F00F419002000B587B08D
:10812C0003900B4601928DF80B30039B002B04D16E
:10813C00164940F25A2000F06FFD019B002B04D130
:10814C00124940F25B2000F067FD019B002B01D12E
:10815C00072317E0039B1B68059305994FF0FF322B
:10816C004FF0FF33C1E90223059B019A5A619DF838
:10817C000B30012B0CBF01230023DBB21A46059BED
:10818C001A610023184607B05DF804FB34C30200E3
:10819C00F0B589B0039002910192039B002B04D19E
:1081AC00264940F26B2000F037FD039B0693002319
:1081BC008DF817300DF11703184600F011F9069BD6
:1081CC00D3E90223B3F1FF3F08BFB2F1FF3F11D156
:1081DC00FFF774FC02460B46029900200C4605463C
:1081EC00161943EB0507069BC3E9026701238DF8BB
:1081FC001F3002E000238DF81F309DF81730184611
:10820C0000F004F99DF81F3083F00103DBB2002B62
:10821C0001D000230EE0069B019A9A61069B1B6914
:10822C00002B02D0069B029A1A6106990020FFF7D8
:10823C000BFF0346184609B0F0BD00BF34C3020063
:10824C0000B587B00190019B002B04D11E4940F270
:10825C00932000F0E1FC019B049300238DF80F3078
:10826C000DF10F03184600F0BBF8049BD3E9022371
:10827C00B3F1FF3F08BFB2F1FF3F03D100238DF8EC
:10828C00173009E004994FF0FF324FF0FF33C1E98A
:10829C00022301238DF817309DF80F30184600F09B
:1082AC00B5F89DF8173083F00103DBB2002B01D039
:1082BC00002304E004990120FFF7C6FE034618468C
:1082CC0007B05DF804FB00BF34C3020082B001901C
:1082DC000091019A009BD31A23F07F43184602B0F9
:1082EC007047000008B5034800F06DFC03461846C3
:1082FC0008BD00BFF818002082B0EFF31083009384
:10830C00009B019372B600BF019B184602B07047E8
:10831C0062B600BF00BF704700B585B00190FFF793
:10832C00EBFF0390164B9B68002B1BD1144B0122C7
:10833C009A60144BD3F88020134B1340104A1360EF
:10834C00104B114AC3F880200E4BD3F884300C4AE2
:10835C0053600C4B4FF0FF32C3F88420019B00227A
:10836C001A7002E0019B01221A70039B002B01D1B1
:10837C00FFF7CEFF0023184605B05DF804FB00BFE5
:10838C00741A002000E100E0FC06FFBD00B585B0CA
:10839C0003468DF80730104B9B68002B16D09DF8C8
:1083AC000730002B12D1FFF7A7FF03900B4A0A4BA3
:1083BC001B681360094A084B5B685360064B00222C
:1083CC009A60039B002B01D1FFF7A2FF00231846F4
:1083DC0005B05DF804FB00BF741A002000E100E05A
:1083EC0000B583B0019000F02BF80346012B03D0AD
:1083FC000549432000F010FC0198FFF78DFF00BFEA
:10840C0003B05DF804FB00BF90C3020000B583B05D
:10841C0003468DF8073000F013F80346012B03D008
:10842C000649512000F0F8FB9DF807301846FFF77D
:10843C00ADFF00BF03B05DF804FB00BF90C30200AA
:10844C0084B0EFF305830193019BC3F308030393FB
:10845C00039B002B0DD1EFF314830093009B02932D
:10846C00029B03F00103002B0CBF01230023DBB2A2
:10847C0000E00123184604B07047000082B00346A8
:10848C008DF807309DF90730002B0CDB9DF8073079
:10849C0003F01F0205499DF907305B09012000FA22
:1084AC0002F241F8232000BF02B0704700E100E067
:1084BC0082B003468DF807309DF90730002B0DDB99
:1084CC009DF8073003F01F0206499DF907305B0940
:1084DC00012000FA02F2403341F8232000BF02B021
:1084EC00704700BF00E100E082B0034600918DF8B8
:1084FC0007309DF90730002B0ADB009BDAB20C49E0
:10850C009DF907305201D2B20B4483F800230BE0E3
:10851C00009BDAB207499DF8073003F00F03043BC8
:10852C005201D2B20B441A7600BF02B0704700BFA2
:10853C0000E100E000ED00E000B583B003460A4620
:10854C008DF8073013468DF806309DF80630012B58
:10855C0003D99DF80630032B0BD99DF80630042B5C
:10856C0003D99DF80630072B03D908496B2000F07E
:10857C0053FB9DF806209DF9073011461846FFF76E
:10858C00B3FF00BF03B05DF804FB00BFECC30200F7
:10859C0000B583B003468DF807309DF907301846B7
:1085AC00FFF76CFF00BF03B05DF804FB00B585B0AE
:1085BC000190019B002B0AD0074B43F0010303935E
:1085CC00019B9B010293039B0298984700E000BF1C
:1085DC0005B05DF804FB00BFC0C4020084B003907A
:1085EC0002910192039B029A02F5A872019943F839
:1085FC00221000BF04B0704782B001900091019B23
:10860C00009A02F5A87253F82230184602B070474F
:10861C0082B001900091019B009AC3F8042300BF23
:10862C0002B0704782B001900091019B009AC3F890
:10863C00082300BF02B0704782B001900B46ADF822
:10864C000230BDF80230019A13441B68184602B080
:10865C00704784B001900B46ADF80230BDF8023083
:10866C00019A134400221A60BDF80230019A134497
:10867C001B680393039B00BF04B0704782B001904A
:10868C00019BD3F80435184602B0704700B583B08F
:10869C0001900091009BB3F5805F04D306494FF421
:1086AC00BE7000F0B9FA019B009AC3F8082500BF10
:1086BC0003B05DF804FB00BF2CC4020082B0019033
:1086CC000B468DF803309DF80320019B13441A468A
:1086DC000123136000BF02B0704782B0019000917B
:1086EC00019B009AC3F8442300BF02B0704782B0CC
:1086FC0001900091019B009AC3F8482300BF02B07F
:10870C007047000000B587B0039002910192039B63
:10871C00002B03D12849552000F07EFA029B002B38
:10872C0003D12549562000F077FA019B002B03D189
:10873C002149572000F070FA039B5B7919461F4AB8
:10874C00019B42F82130039B5B791D4ADB001344EB
:10875C001B79002B03D008230593059B27E0039B73
:10876C001A68029B1B8819461046FFF78FFF039B64
:10877C0093F90420029B9B7819461046FFF7DCFE08
:10878C00039B93F904301846FFF702FF039B5B79B8
:10879C000B4ADB00134401221A71039B5B791946C7
:1087AC00074A039B42F8313000230593059B18467A
:1087BC0007B05DF804FB00BF6CC40200801A0020F7
:1087CC00841A002000B583B00190019B002B03D1CB
:1087DC000649872000F020FA019B1B6800211846EF
:1087EC00FFF76CFF00BF03B05DF804FB6CC4020024
:1087FC0000B583B00190019B002B03D106498D205D
:10880C0000F00AFA019B1B6804211846FFF756FF7B
:10881C0000BF03B05DF804FB6CC4020000B587B068
:10882C000390029101928DF80330039B002B03D12E
:10883C002149962000F0F0F94FF48032029B02FAA5
:10884C0003F30593029B50339BB29B00ADF812309F
:10885C00019B23F07F430193039B1B6805991846EA
:10886C00FFF7E0FE039B1B6805991846FFF73FFFD7
:10887C00039B1B68BDF8122011461846FFF7E9FE52
:10888C00039B1B68019A02991846FFF7A7FE039BEE
:10889C001B6805991846FFF720FF9DF80330002B45
:1088AC0005D0039B1B6805991846FFF7B1FE00BF66
:1088BC0007B05DF804FB00BF6CC4020000B585B0C6
:1088CC000390029113468DF80730039B002B03D1C4
:1088DC000B49A92000F0A0F9039B1B6802991846CC
:1088EC00FFF7FBFE9DF80730002B05D0039B1B68A0
:1088FC0002991846FFF78CFE00BF05B05DF804FB2B
:10890C006CC4020000B583B001900091019B002B58
:10891C0003D10A49B32000F07FF9019B1B68009931
:10892C001846FFF7E4FE019B1B6800991846FFF7F9
:10893C0079FE00BF03B05DF804FB00BF6CC40200FD
:10894C0000B583B001900B46ADF80230019B002BB3
:10895C0003D10F49BA2000F05FF9019B1B68BDF8E9
:10896C00022011461846FFF767FE0346002B09D07C
:10897C00019B1B68BDF8022011461846FFF769FEE3
:10898C00012300E00023184603B05DF804FB00BF90
:10899C006CC4020082B001900091019A009BD31A22
:1089AC0023F07F43184602B07047000000B58BB02F
:1089BC000390029101920093039B002B03D1574922
:1089CC00CD2000F029F94FF48032029B02FA03F318
:1089DC000993029B50339BB29B00ADF82230019B54
:1089EC0023F07F43019309990398FFF78BFF039BB7
:1089FC001B681846FFF742FE0790039B1B68029901
:108A0C001846FFF7F9FD0690039B1B68079A02991D
:108A1C001846FFF7E3FD039B1B68BDF822201146A7
:108A2C001846FFF716FE07990698FFF7B3FF0346A3
:108A3C00012B0AD11020FFF7B9FD039B1B68BDF871
:108A4C00222011461846FFF704FE039B1B681846AC
:108A5C00FFF714FE079007990198FFF79BFF05900D
:108A6C00039B1B6809991846FFF737FE059B012BE2
:108A7C0015D1039B1868019B01331A460299FFF725
:108A8C00ADFD1020FFF792FD039B1B681846FFF706
:108A9C00F5FD0246079B934235D00D2339E0039B2D
:108AAC001B68019A02991846FFF798FD039B1B68F7
:108ABC001846FFF7E3FD0790019B013B0799184609
:108ACC00FFF768FF0590009BC3F1FF1303F57F438D
:108ADC00059A9A4201D90D231BE0059B002B12D15C
:108AEC00039B1868019B01331A460299FFF776FD28
:108AFC00039B1B681846FFF7C1FD0246079B934278
:108B0C0001D00D2305E0012209990398FFF7D6FE49
:108B1C00002318460BB05DF804FB00BF6CC40200C8
:108B2C0000B583B001900B468DF803309DF80330EF
:108B3C001A4602210198FFF7C1FE00BF03B05DF891
:108B4C0004FB00B583B001904FF482710198FFF7DC
:108B5C00F7FE0346184603B05DF804FB00B583B07E
:108B6C00019000914FF48032009B02FA03F31946F6
:108B7C000198FFF7C7FE00BF03B05DF804FB00B51A
:108B8C0085B001900091009B50339BB29B00ADF8D7
:108B9C000E30BDF80E3019460198FFF7D1FE034692
:108BAC00184605B05DF804FB00B583B00190009148
:108BBC00019B1B6800991846FFF71EFD03461846DB
:108BCC0003B05DF804FB00B583B00190019B1B68FA
:108BDC001846FFF753FD0346184603B05DF804FB37
:108BEC0000B583B00190019B93F904301846FFF750
:108BFC005FFC00BF03B05DF804FB000008B5044B3C
:108C0C001B68044A12681046984700BF08BD00BF95
:108C1C00801A0020841A002000B585B0034600910C
:108C2C00ADF80630BDF806300293009B039302ABFF
:108C3C001A46002144F20200FEF7FEFE00BF05B00A
:108C4C005DF804FB86B001900091019B53E8011F75
:108C5C008AB2D88902449889824228BF121A18898C
:108C6C00824202BFBFF32F8F002307E0C2EA01024A
:108C7C0043E801200028E9D14FF001038DF80F30B3
:108C8C00059002910492029A009B1A609DF80F3095
:108C9C00DBB2184606B0704784B00190019951E8D8
:108CAC00013FC3EA034341E80132002AF7D10392A2
:108CBC00029300BF04B0704786B001900091019BF5
:108CCC0053E8021F1FFAA1F2D888824202BFBFF3F9
:108CDC002F8F00230DE0D88902449889824228BF47
:108CEC00121AC1EA024243E802200028E8D14FF0F0
:108CFC0001038DF80F30059002910492029A009BAB
:108D0C001A609DF80F30DBB2184606B0704784B07D
:108D1C000190019951E8023FC3EA234341E8023232
:108D2C00002AF7D10392029300BF04B0704784B0BD
:108D3C000390029111461A460B46ADF806301346C5
:108D4C00ADF80430029B002B01D10E231FE0BDF8BF
:108D5C000630BDF80420B3FBF2F101FB02F29B1AC2
:108D6C009BB2002B01D0092311E0039B029A1A60DD
:108D7C00039B00225A60039B00229A60039BBDF860
:108D8C0006209A81039BBDF80420DA810023184643
:108D9C0004B0704700B585B001900091009B194656
:108DAC000198FFF74FFF0346002B07D0019B1B6870
:108DBC00009A128813440393039B00E00023184687
:108DCC0005B05DF804FB00B583B001900091009BE9
:108DDC001A88009B5B889A4204D10198FFF75CFFCC
:108DEC00012300E00023184603B05DF804FB00B536
:108DFC0085B001900091009B19460198FFF75CFF2C
:108E0C000346002B07D0019B1B68009A5288134421
:108E1C000393039B00E00023184605B05DF804FBA8
:108E2C0000B583B001900091009B1A88009B5B8871
:108E3C009A4204D10198FFF76AFF012300E0002356
:108E4C00184603B05DF804FB82B003468DF807307A
:108E5C009DF90730002B0DDB9DF8073003F01F0246
:108E6C0006499DF907305B09012000FA02F26033D4
:108E7C0041F8232000BF02B0704700BF00E100E0C2
:108E8C0000B583B00190019B002B03D106497220E1
:108E9C00FFF7C2FE019B00221A60BFF35F8F00BF79
:108EAC0000BF03B05DF804FB30C5020041DF704722
:108EBC0000BF184600B585B000238DF807300DF1C2
:108ECC0007031846FFF78CFAF1EE103A0393039B55
:108EDC0023F09F030293029BE1EE103A00BFBFF315
:108EEC005F8F00BF2620FFF7AFFF9DF807301846B5
:108EFC00FFF78CFA039B03F00703002B03D0044904
:108F0C007D20FFF789FE00BF05B05DF804FB00BFB4
:108F1C0078C5020008B5064B00221A700548FFF709
:108F2C00AFFF0549054800F02DF80023184608BD91
:108F3C00901A00208C1A0020D4C50200941A00202C
:108F4C0000B583B0FFF7B6FF02F034FF0346002BE9
:108F5C000ED0FFF7ABFF0190019B002B0BD0019BB8
:108F6C00022B08D006494FF4B070FFF755FE02E013
:108F7C0020BF40BF20BF00BF03B05DF804FB00BFA3
:108F8C0078C5020000B583B001900091019B002BC5
:108F9C0003D110495020FFF73FFE009B002B03D15B
:108FAC000C495120FFF738FE019B009A1A60019B77
:108FBC001B681A68019B5A60019B5A68019B1B68CD
:108FCC005B689A4202D1019B00225A6000BF03B039
:108FDC005DF804FBE0C5020000B583B00190019B75
:108FEC00002B03D114496320FFF716FE019B1B686D
:108FFC00002B03D110496420FFF70EFE019B5B6828
:10900C00002B14D0019B5B681A46019B1B689B6864
:10901C0013441A46019B5A60019B5A68019B1B68BA
:10902C005B689A4204D1019B00225A6000E000BFA9
:10903C0003B05DF804FB00BFE0C5020000B585B0CD
:10904C0001900091019B002B03D118493A20FFF7A6
:10905C00E3FD009B002B03D114493B20FFF7DCFD03
:10906C00019B5B6803930FE0019B9B68039A12685A
:10907C00009910469847034683F00103DBB2002B9E
:10908C0007D1039B1B680393039B1B68002BEBD13D
:10909C0000E000BF039B1A68009B1A60039B009AB8
:1090AC001A6000BF05B05DF804FB00BF50C602009B
:1090BC0000B585B00190019B002B03D10C495120C8
:1090CC00FFF7AAFD019B5B681B680393019B5B6820
:1090DC001B68002B06D0019B5B681A68019B5B68C0
:1090EC0012681A60039B184605B05DF804FB00BFBC
:1090FC0050C6020000B583B00190019B002B03D138
:10910C0005495D20FFF788FD019B5B681B681846CD
:10911C0003B05DF804FB00BF50C6020000B585B07B
:10912C0001900091019B002B03D116496920FFF798
:10913C0073FD009B002B03D112496A20FFF76CFDD5
:10914C0000238DF80F30019B5B6802930FE0029BAC
:10915C001B68009A9A4207D1009B1A68029B1A60FE
:10916C0001238DF80F3006E0029B1B680293029BD3
:10917C001B68002BEBD19DF80F30184605B05DF83D
:10918C0004FB00BF50C60200BFF34F8F00BF064B5D
:10919C00DB6803F4E0620449044B1343CB60BFF378
:1091AC004F8F00BF00BFFDE700ED00E00400FA05A3
:1091BC0082B0164B1B680193154B1B680093019BE7
:1091CC00082B1FD1009B052B1AD801A252F823F0B3
:1091DC00F5910200F9910200FD910200019202004A
:1091EC00059202000992020001230CE001230AE01F
:1091FC00012308E0012306E0012304E0012302E03F
:10920C00012300E00023184602B070473001001023
:10921C003401001082B0164B1B680193154B1B6870
:10922C000093019B082B1FD1009B052B1AD801A280
:10923C0052F823F0599202005D92020061920200F2
:10924C0065920200699202006D92020001230CE00B
:10925C0001230AE0012308E0012306E0012304E0D6
:10926C00012302E0012300E00023184602B07047FE
:10927C00300100103401001082B0164B1B680193B2
:10928C00154B1B680093019B082B1FD1009B052BD2
:10929C001AD801A252F823F0BD920200C19202002A
:1092AC00C5920200C9920200CD920200D192020036
:1092BC0001230CE000230AE0002308E0002306E071
:1092CC00002304E0002302E0002300E00023184602
:1092DC0002B07047300100103401001082B0164B00
:1092EC001B680193154B1B680093019B082B1FD126
:1092FC00009B052B1AD801A252F823F021930200EF
:10930C0025930200299302002D9302003193020051
:10931C003593020001230CE000230AE0002308E04F
:10932C00002306E0002304E0002302E0002300E019
:10933C000023184602B070473001001034010010B1
:10934C0082B0164B1B680193154B1B680093019B55
:10935C00082B1FD1009B052B1AD801A252F823F021
:10936C0085930200899302008D9302009193020071
:10937C00959302009993020001230CE000230AE06C
:10938C00002308E0002306E0002304E0002302E0B1
:10939C00002300E00023184602B070473001001093
:1093AC003401001082B0164B1B680193154B1B68DF
:1093BC000093019B082B1FD1009B052B1AD801A2EF
:1093CC0052F823F0E9930200ED930200F1930200AE
:1093DC00F5930200F9930200FD93020001230CE0C7
:1093EC0000230AE0002308E0002306E0002304E049
:1093FC00002302E0002300E00023184602B070476F
:10940C00300100103401001082B0164B1B68019320
:10941C00154B1B680093019B082B1FD1009B052B40
:10942C001AD801A252F823F04D9402005194020074
:10943C0055940200599402005D940200619402005C
:10944C0001230CE001230AE0012308E0012306E0DC
:10945C00012304E0012302E0012300E0002318466D
:10946C0002B07047300100103401001082B0164B6E
:10947C001B680193154B1B680093019B082B1FD194
:10948C00009B052B1AD801A252F823F0B1940200CC
:10949C00B5940200B9940200BD940200C19402007C
:1094AC00C594020000230CE000230AE0002308E02E
:1094BC00002306E0012304E0012302E0012300E085
:1094CC000023184602B07047300100103401001020
:1094DC0008B5FFF7CBFF0346002B07D04FF0102346
:1094EC004FF08042D3F80832C2F8583500BF08BD9F
:1094FC0000BF044BD3F80034002BFAD000BF00BFE0
:10950C00704700BF00E0014000B583B00190054AF0
:10951C00019BC2F80435FFF7EBFF00BF03B05DF809
:10952C0004FB00BF00E00140024B034A1A6000BF7D
:10953C00704700BF001900200090D00308B5FFF75A
:10954C0037FE0346002B0ED04FF080430022C3F8A9
:10955C000C214FF080430022C3F810214FF08043C0
:10956C000022C3F83825FFF755FE0346002B76D0B2
:10957C004FF08053734AD3F80434C2F820354FF0BF
:10958C008053704AD3F80834C2F824354FF0805316
:10959C006C4AD3F80C34C2F828354FF08053694A22
:1095AC00D3F81034C2F82C354FF08053654AD3F8F9
:1095BC001434C2F830354FF08053624AD3F8183463
:1095CC00C2F834354FF080535E4AD3F81C34C2F8DD
:1095DC0040354FF080535B4AD3F82034C2F8443501
:1095EC004FF08053574AD3F82434C2F848354FF023
:1095FC008053544AD3F82834C2F84C354FF080537A
:10960C00504AD3F82C34C2F850354FF080534D4AA1
:10961C00D3F83034C2F854354FF08053494AD3F85C
:10962C003434C2F860354FF08053464AD3F838349E
:10963C00C2F864354FF08053424AD3F83C34C2F838
:10964C0068354FF080533F4AD3F84034C2F86C353C
:10965C004FF080533B4AD3F84434C2F87035FFF7CF
:10966C000BFE0346002B02D0374B384A1A60FFF72B
:10967C0035FE0346002B03D0354BFB22C3F81825CF
:10968C00FFF75EFE0346002B0AD0324B1B6823F01B
:10969C000F02314B1B6803F00F032E4913430B6071
:1096AC00FFF780FE0346002B03D02C4B4FF40072C7
:1096BC001A60FFF7A9FE0346002B0DD04FF0804334
:1096CC00D3F8003403F00103002B05D04FF0804396
:1096DC006FF00102C3F80024214BD3F88830204AE4
:1096EC0043F47003C2F88830BFF34F8F00BFBFF351
:1096FC006F8F00BFFFF7ECFE4FF01023D3F8003252
:10970C00002B05DB4FF01023D3F80432002B15DAB5
:10971C000120FFF7F9FE4FF010231222C3F80022AC
:10972C00FFF7E6FE4FF010231222C3F80422FFF7D6
:10973C00DFFE0020FFF7E8FEFFF726FDFFF7F4FE43
:10974C0000BF08BD00C000408C560040488103009B
:10975C0000F00040E40E0040580200104096024019
:10976C0000ED00E0BFF34F8F00BF064BDB6803F446
:10977C00E0620449044B1343CB60BFF34F8F00BF2F
:10978C0000BFFDE700ED00E00400FA0500B583B072
:10979C000190019B1B68184600F002F90346002B50
:1097AC0004D10B494FF4F670FFF736FA019B1B6896
:1097BC001F2B02D84FF0A04306E0019B1B6803F05F
:1097CC001F02019B1A60034B184603B05DF804FBA3
:1097DC00ACC602000003005000B585B001900846ED
:1097EC0011461A4603468DF803300B468DF80230AD
:1097FC0013468DF8013001AB1846FFF7C7FF0390F5
:10980C009DF803209DF802305B001A439DF801304F
:10981C009B001A439DF818301B0242EA03019DF885
:10982C001C301B04019A1943039B02F5E07243F8A8
:10983C00221000BF05B05DF804FB00B585B00390A5
:10984C00002301930023009300230122012103989C
:10985C00FFF7C2FF00BF05B05DF804FB00B585B093
:10986C0003900B468DF80B309DF80B3000220192C3
:10987C0000220092002200210398FFF7ADFF00BFE9
:10988C0005B05DF804FB00B585B0019001AB18463E
:10989C00FFF77CFF0390019B012202FA03F31946A8
:1098AC00039800F069F800BF05B05DF804FB00B543
:1098BC0085B0019001AB1846FFF768FF0390019B40
:1098CC00012202FA03F31946039800F05FF800BF77
:1098DC0005B05DF804FB00B585B0019001AB1846EE
:1098EC00FFF754FF0390039BD3F804350293029BBC
:1098FC00DA43019B012101FA03F31A40039BC3F8DD
:10990C000825019B01229A40029B1A40039BC3F835
:10991C000C2500BF05B05DF804FB00B583B00190C9
:10992C000091009B002B03D10198FFF7C0FF02E0D0
:10993C000198FFF7A8FF00BF03B05DF804FB00B56A
:10994C0085B0019001AB1846FFF720FF03900398F8
:10995C0000F00AF80246019B22FA03F303F001031C
:10996C00184605B05DF804FB82B00190019BD3F85A
:10997C000435184602B0704782B001900091019BEB
:10998C00009AC3F8082500BF02B0704782B001905E
:10999C000091019B009AC3F80C2500BF02B07047E0
:1099AC0084B00190019B5B09029300230393029BFB
:1099BC00002B03D0029B012B04D007E04FF0FF33A8
:1099CC00039303E04FF6FF73039300BF019B03F077
:1099DC001F030193039A019B22FA03F303F0010383
:1099EC00002B14BF01230023DBB2184604B07047D0
:1099FC0000B585B00190019B032B03D911493A2086
:109A0C00FFF70AF9104A019B13441B781846FFF71D
:109A1C0096FF0346002B14BF012300238DF80F3053
:109A2C009DF80F30002B14BF01230023DBB283F011
:109A3C000103DBB203F00103DBB2184605B05DF89D
:109A4C0004FB00BFECC6020038C7020000B583B0AF
:109A5C000190019B032B03D907494120FFF7DCF848
:109A6C00064A019B13441B7800211846FFF755FF4B
:109A7C0000BF03B05DF804FBECC6020038C702005F
:109A8C0000B583B00190019B032B03D907494720F4
:109A9C00FFF7C2F8064A019B13441B7801211846B4
:109AAC00FFF73BFF00BF03B05DF804FBECC6020000
:109ABC0038C7020000B583B00023019305E001987C
:109ACC00FFF7DEFF019B01330193019B032BF6D9BA
:109ADC0000BF00BF03B05DF804FB00B583B00023EA
:109AEC00019305E00198FFF7B1FF019B013301934E
:109AFC00019B032BF6D900BF00BF03B05DF804FB3C
:109B0C0000B583B00190019B032B03D907495F205B
:109B1C00FFF782F8064A019B13441B781846FFF79F
:109B2C00DAFE00BF03B05DF804FB00BFECC6020018
:109B3C0038C7020008B54FF01023D3F8043303F0F4
:109B4C000703072B21D1124B0122C3F8042500BFB8
:109B5C000F4BD3F80034002BFAD04FF01023D3F86E
:109B6C00043323F007034FF0102243F00403C2F830
:109B7C000433074B0022C3F8042500BF044BD3F871
:109B8C000034002BFAD0FFF7EDFD00BF08BD00BF7D
:109B9C0000E0014000B583B04FF08043D3F840366D
:109BAC0003F00103002B01D0FFF7C4FF0023019346
:109BBC0009E0094A019B13441B781846FFF73DFE48
:109BCC00019B01330193019B032BF2D9FFF772FF29
:109BDC0000BF03B05DF804FB38C7020000B583B0CA
:109BEC000023019307E0262303211846FFF736FED6
:109BFC00019B01330193019B002BF4D000BF00BFEC
:109C0C0003B05DF804FB84B001904FF0FF33029376
:109C1C00002303930AE026231A46019B934202D1A8
:109C2C00039B029305E0039B01330393039B002BDF
:109C3C00F1D0029B184604B0704700B583B0019078
:109C4C00019B03F00103002B01D0FFF7A3FF019B45
:109C5C0003F00203002B01D0FFF7C0FF00BF03B0DD
:109C6C005DF804FB82B003468DF807309DF9073090
:109C7C00002B13DB9DF8073003F01F0209499DF9F7
:109C8C0007305B09012000FA02F2203341F823204F
:109C9C00BFF34F8F00BFBFF36F8F00BF00BF02B089
:109CAC00704700BF00E100E0044BD3F80034002BF8
:109CBC0014BF01230023DBB218467047000001409B
:109CCC0008B502F077F8034683F00103DBB2002BF2
:109CDC0003D109497B20FEF79FFFFFF7E5FF034601
:109CEC0083F00103DBB2002B04D000F091FA034B9C
:109CFC0000229A7000BF08BD3CC702009C1A0020CD
:109D0C0000B583B000230193184B1B78002B02D0B5
:109D1C00852301931CE0154B00229A60134B002203
:109D2C005A60124B00221A61104B0022DA60104864
:109D3C0000F034FA019002F03DF8034683F0010381
:109D4C00DBB2002B01D000F04FFA084B01221A7045
:109D5C00FFF7AAFF0346002B02D0044B01229A7096
:109D6C00019B184603B05DF804FB00BF9C1A002051
:109D7C00559E020084B00190019B1B680393039BCA
:109D8C00002B03D0039B1A68019B1A60039B184697
:109D9C0004B0704700B583B0164B1B78002B04D170
:109DAC00154940F21710FEF737FF124BDB68002BFA
:109DBC0004D111494FF48C70FEF72EFF00238DF85F
:109DCC0007300DF107031846FEF70AFB094BDB6859
:109DDC00013B084AD360074BDB68002B01D1FFF72E
:109DEC006FFF9DF807301846FEF710FB00BF03B05D
:109DFC005DF804FB9C1A00203CC7020000B585B03E
:109E0C0003468DF807309DF80730002B02D10C4B20
:109E1C00039301E00B4B03930398FFF7ABFF029006
:109E2C00029B002B06D0029B5B689DF80720104616
:109E3C009847F1E700BF00BF05B05DF804FB00BF19
:109E4C00A41A0020AC1A002000B583B003468DF88C
:109E5C0007309DF80730002B05D10A4B01225A70B0
:109E6C000020FFF7CBFF9DF80730012B05D1054BE8
:109E7C0001229A700120FFF7C1FF00BF03B05DF80B
:109E8C0004FB00BF9C1A002000B583B00190009128
:109E9C00019B002B05D1054B01225A700020FFF7C6
:109EAC00ADFF00BF03B05DF804FB00BF9C1A00209F
:109EBC0000B585B0034600918DF807309DF807304A
:109ECC00032B29D0032B35DC002B02D0012B04D023
:109EDC0030E00020FFF7C6FE2DE000238DF80F3098
:109EEC000DF10F031846FEF77BFA154B1B7883F028
:109EFC000103DBB2002B01D0FFF702FF104BDB6834
:109F0C0001330F4AD3600E4B01229A709DF80F302B
:109F1C001846FEF77BFA0EE0094B1B78002B04D198
:109F2C00084940F25220FEF777FE00F05DF9FFF78A
:109F3C0031FF00E000BF00BF05B05DF804FB00BFBF
:109F4C009C1A00203CC7020082B003468DF80730F3
:109F5C009DF90730002B0CDB9DF8073003F01F0236
:109F6C0005499DF907305B09012000FA02F241F81E
:109F7C00232000BF02B0704700E100E082B003462E
:109F8C0000918DF807309DF90730002B0ADB009B00
:109F9C00DAB20C499DF907305201D2B20B4483F866
:109FAC0000230BE0009BDAB207499DF8073003F061
:109FBC000F03043B5201D2B20B441A7600BF02B01D
:109FCC00704700BF00E100E000ED00E082B00190BE
:109FDC00019B1B0B5BB2184602B0704700B583B0F7
:109FEC0003460A468DF8073013468DF806309DF867
:109FFC000630012B03D99DF80630032B0BD99DF8A5
:10A00C000630042B03D99DF80630072B03D90849D9
:10A01C006B20FEF701FE9DF806209DF907301146D6
:10A02C001846FFF7ABFF00BF03B05DF804FB00BFA1
:10A03C0094C7020000B583B003468DF807309DF934
:10A04C0007301846FFF780FF00BF03B05DF804FB34
:10A05C0082B003468DF807300F4A9DF90730002B6C
:10A06C0000DA1F335B115BB252F823209DF90730E5
:10A07C00594203F01F0301F01F0158BF4B425BB262
:10A08C0022FA03F303F00103002B14BF0123002376
:10A09C00DBB2184602B0704700E100E082B00190DC
:10A0AC004FF08042019BC2F8083300BF02B07047EA
:10A0BC0082B003468DF807309DF8073003F18043DA
:10A0CC0001221A6000BF02B0704784B00346ADF89D
:10A0DC000630BDF8063003F1804300221A60BDF84B
:10A0EC00063003F180431B680393039B00BF04B04D
:10A0FC00704782B00346ADF80630BDF8063003F168
:10A10C0080431B68002B14BF01230023DBB21846CD
:10A11C0002B0704782B001904FF08042019BC2F8B0
:10A12C00183500BF02B070474FF08043D3F8183495
:10A13C001B0C03F00103002B14BF01230023DBB223
:10A14C001846704700B583B006238DF807304FF0E2
:10A15C008040FFF73BFF03461846FFF779FF0346A5
:10A16C0083F00103DBB2002B13D04FF08040FFF7DC
:10A17C002DFF03461A469DF8073019461046FFF787
:10A18C002DFF4FF08040FFF721FF03461846FFF7E5
:10A19C0051FF00BF03B05DF804FB000000B585B0B3
:10A1AC000190019B002B03D10D49A420FEF734FD37
:10A1BC00002303930B4B1B79002B02D085230393B5
:10A1CC0008E0084A019B1360064B01221A71054BEB
:10A1DC0000225A71039B184605B05DF804FB00BFC2
:10A1EC00D4C70200B01A002008B5074B1B79002B0E
:10A1FC0003D10649BD20FEF70FFDFFF7A3FF012099
:10A20C00FFF788FF00BF08BDB01A0020D4C70200BA
:10A21C0008B50D4B1B79002B03D10C49F720FEF729
:10A22C00FBFC0220FFF73AFF4FF48270FFF74DFF63
:10A23C000C20FFF73DFF00BFFFF776FF0346002B16
:10A24C00FAD100BF00BF08BDB01A0020D4C702006D
:10A25C0008B54FF48070FFF74CFF0346002B14D069
:10A26C004FF48070FFF731FF0120FFF717FF114B00
:10A27C005B7983F00103DBB2002B06D00D4B01227E
:10A28C005A710C4B1B68002098474FF48270FFF7F3
:10A29C0030FF0346002B0AD04FF48270FFF715FFF6
:10A2AC000220FFF7FBFE034B1B680120984700BF01
:10A2BC0008BD00BFB01A002082B003468DF80730ED
:10A2CC009DF90730002B0CDB9DF8073003F01F02C3
:10A2DC0005499DF907305B09012000FA02F241F8AB
:10A2EC00232000BF02B0704700E100E082B00346BB
:10A2FC0000918DF807309DF90730002B0ADB009B8D
:10A30C00DAB20C499DF907305201D2B20B4483F8F2
:10A31C0000230BE0009BDAB207499DF8073003F0ED
:10A32C000F03043B5201D2B20B441A7600BF02B0A9
:10A33C00704700BF00E100E000ED00E082B001904A
:10A34C00019B1B0B5BB2184602B0704700B583B083
:10A35C0003460A468DF8073013468DF806309DF8F3
:10A36C000630012B03D99DF80630032B0BD99DF831
:10A37C000630042B03D99DF80630072B03D9084966
:10A38C006B20FEF749FC9DF806209DF9073011461D
:10A39C001846FFF7ABFF00BF03B05DF804FB00BF2E
:10A3AC0028C8020000B583B003468DF807309DF92C
:10A3BC0007301846FFF780FF00BF03B05DF804FBC1
:10A3CC0000B583B00346ADF80630BDF8063018462C
:10A3DC0000F026F803461B68012B0CBF0123002359
:10A3EC00DBB2184603B05DF804FB00B585B003463C
:10A3FC00ADF80630BDF80630184600F011F80346EB
:10A40C001A4600231360BDF80630184600F008F811
:10A41C0003461B680393039B00BF05B05DF804FB68
:10A42C0082B00346ADF80630BDF8063003F1804328
:10A43C0003F5C043184602B07047000082B001908B
:10A44C00034A019BC2F8043300BF02B0704700BF3F
:10A45C000060004082B00190034BD3F80423019BB1
:10A46C001340184602B070470060004082B0019063
:10A47C00084A019B03F5A27352F82330054943F0B7
:10A48C000102019B03F5A27341F8232000BF02B027
:10A49C00704700BF0060004084B0039002911346E7
:10A4AC008DF80730144A039B03F5A27352F823303E
:10A4BC00114923F44F3323F44073039A02F5A2722B
:10A4CC0041F822300C4A039B03F5A27352F8232067
:10A4DC00029B1B0203F47C519DF807301B0403F410
:10A4EC0040330B4304491A43039B03F5A27341F811
:10A4FC00232000BF04B070470060004082B0019080
:10A50C00054A019B03F5A27352F823301B0A03F092
:10A51C003F03184602B070470060004082B00190C3
:10A52C00064A019B03F5A27352F823301B0C03F06F
:10A53C000303DBB2184602B0704700BF0060004056
:10A54C0000B583B00190019B1B68184600F02AF9F6
:10A55C000346002B04D10B494FF4F670FEF75CFB5D
:10A56C00019B1B681F2B02D84FF0A04306E0019BF8
:10A57C001B6803F01F02019B1A60034B184603B0C3
:10A58C005DF804FB68C802000003005000B585B0FC
:10A59C000190084611461A4603468DF803300B46C7
:10A5AC008DF8023013468DF8013001AB1846FFF7D9
:10A5BC00C7FF03909DF803209DF802305B001A43FF
:10A5CC009DF801309B001A439DF818301B0242EA9B
:10A5DC0003019DF81C301B04019A1943039B02F5DF
:10A5EC00E07243F8221000BF05B05DF804FB00B523
:10A5FC0085B003900B468DF80B309DF80B30002284
:10A60C00019200220092002200210398FFF7BEFF66
:10A61C0000BF05B05DF804FB00B585B0019001AB3F
:10A62C001846FFF78DFF0390019A039B02F5E07229
:10A63C0053F8223023F002030293019A039B02F594
:10A64C00E072029943F8221000BF05B05DF804FBDC
:10A65C0000B585B001900B468DF8033001AB184660
:10A66C00FFF76EFF0390019A039B02F5E07253F81B
:10A67C002230019A23F44031039B02F5E07243F837
:10A68C002210019A039B02F5E07253F822309DF8D8
:10A69C00032012041146019A1943039B02F5E07240
:10A6AC0043F8221000BF05B05DF804FB00B585B07F
:10A6BC00019001AB1846FFF743FF0390039800F09D
:10A6CC0020F80246019B22FA03F303F0010318461B
:10A6DC0005B05DF804FB00B585B0019001AB1846E0
:10A6EC00FFF72EFF0390019A039B02F5E07253F8DB
:10A6FC0022301B0C03F00303DBB2184605B05DF8E7
:10A70C0004FB82B00190019BD3F81035184602B0BF
:10A71C007047000088B0039002910192164A05AB75
:10A72C0092E8030083E80300039B079319E0079B5F
:10A73C009B0020336B4453F80C3CD3F82025019B31
:10A74C001A60079B9B0020336B4453F80C3C019A16
:10A75C001268C3F82025019B04330193079B013336
:10A76C000793039A029B1344079A9A42DFD300BFC4
:10A77C0000BF08B0704700BFA8C8020000B585B084
:10A78C00019001AB1846FFF7DBFE0390019B012201
:10A79C0002FA03F31A46039BC3F8202500BF05B049
:10A7AC005DF804FB84B00190019B5B0902930023CC
:10A7BC000393029B002B03D0029B012B04D007E0D8
:10A7CC004FF0FF33039303E04FF6FF73039300BF87
:10A7DC00019B03F01F030193039A019B22FA03F3DD
:10A7EC0003F00103002B14BF01230023DBB2184636
:10A7FC0004B0704784B001900091009B0393019BBF
:10A80C00DB080293019B03F0070301930122019BD8
:10A81C0002FA03F30399029A0A4412781340184679
:10A82C0004B0704784B001900091009B0393019B8E
:10A83C00DB080293019B03F007030193039A029B2D
:10A84C0013441B785AB20121019B01FA03F35BB24A
:10A85C00134359B2039A029B1344CAB21A7000BF35
:10A86C0004B0704782B001900C4A019B1344303302
:10A87C0093F90030002B09DB084A019B1344303359
:10A88C0093F90030072B01DC012300E0002303F0D7
:10A89C000103DBB2184602B0704700BFB81A0020A3
:10A8AC0082B00190064A019B1344303393F9003077
:10A8BC00072BCCBF01230023DBB2184602B0704734
:10A8CC00B81A002082B00190064A019B1344303321
:10A8DC0093F90030DB43DBB2DB09DBB2184602B084
:10A8EC00704700BFB81A002084B003900291019207
:10A8FC008DF80330029B59B20E4A039B134430333C
:10A90C000A461A700B49029B019A41F823209DF8C4
:10A91C00033083F00103DBB2002B08D0029B083B11
:10A92C00039A51B2034A13440A4683F8602000BFCD
:10A93C0004B07047B81A002082B00190044A019B01
:10A94C0013443033FF221A7000BF02B0704700BFAF
:10A95C00B81A002000B583B0019004490198FFF7A4
:10A96C0061FF00BF03B05DF804FB00BF1C1B00209F
:10A97C0082B00190044A019B1344303393F90030A8
:10A98C00184602B0704700BFB81A002082B0019080
:10A99C00034A019B52F82330184602B0704700BF9F
:10A9AC00B81A002084B00190074A019B134460330D
:10A9BC0093F900308DF80F309DF80F3023F0C00361
:10A9CC00184604B0704700BFB81A002084B001903C
:10A9DC00074A019B1344603393F900308DF80F3014
:10A9EC009DF80F309B09DBB2184604B0704700BFCE
:10A9FC00B81A002000B589B00390029113468DF867
:10AA0C000730FF238DF81F309DF80730002B01D045
:10AA1C00002300E0082305939DF80730002B01D09C
:10AA2C00082300E00C230493059B069314E00F4AC3
:10AA3C00069B52F82330B3F1FF3F0AD19DF8073043
:10AA4C00029A06990398FFF74FFF069B8DF81F306B
:10AA5C0006E0069B01330693069A049B9A42E6D3C2
:10AA6C009DF91F30184609B05DF804FBB81A002098
:10AA7C0082B003468DF807309DF80730094A4FF035
:10AA8C00FF3142F823109DF80730072B07D99DF8AA
:10AA9C000730083B034A1344FF2283F8602000BFB1
:10AAAC0002B07047B81A002000B583B02D4B93F854
:10AABC006A30002B03D008230093009B4EE0002348
:10AACC008DF8073011E09DF807301846FFF76AFE45
:10AADC000346002B04D09DF807301846FFF72CFFD7
:10AAEC009DF8073001338DF807309DF807302F2B78
:10AAFC00E9D900238DF8073009E09DF80730184696
:10AB0C00FFF7B6FF9DF8073001338DF807309DF83D
:10AB1C0007300B2BF1D906220021134801F080FBE2
:10AB2C001248FFF70BFC034606211846FFF70EFCF4
:10AB3C000E48FFF703FC03461846FFF733FC4FF4AF
:10AB4C00BE70FFF752FC4FF00040FFF777FC054B4F
:10AB5C00012283F86A2000230093009B184603B05F
:10AB6C005DF804FBB81A00201C1B0020006000409C
:10AB7C00044B93F86A30002B14BF01230023DBB283
:10AB8C0018467047B81A002000B587B003900291A0
:10AB9C0001920398FFF706FE0346002B04D13649B9
:10ABAC004FF40C70FEF738F8002305930398FFF769
:10ABBC0089FE0346002B02D00823059357E0029B25
:10ABCC009B78C3F34003DBB21A4601990398FFF755
:10ABDC0011FF03468DF813309DF91330B3F1FF3F8D
:10ABEC0043D0029B9B78C3F38003DBB283F0010359
:10ABFC00DBB2002B13D0029B9B7803F00103DBB27A
:10AC0C00002B03D00398FFF707FD05E0029B5B7850
:10AC1C0019460398FFF7EBFC0398FFF79BFE029B8A
:10AC2C009B7803F00203DBB2002B08D09DF91300D4
:10AC3C00029B1B781A460399FFF72EFC17E09DF92F
:10AC4C001330083B0D4A134493F96010029B1B7898
:10AC5C009B015AB29DF91330083B0A4351B2074A83
:10AC6C0013440A4683F8602001E004230593059BF6
:10AC7C00184607B05DF804FBB0C80200B81A0020F3
:10AC8C0000B589B001900B468DF803300198FFF7A1
:10AC9C0089FD0346002B04D13A494FF41870FDF797
:10ACAC00BBFF0198FFF70EFE0346002B04D135497C
:10ACBC0040F26120FDF7B0FF0198FFF7F1FD03466C
:10ACCC00002B2AD00198FFF753FE0346083B184689
:10ACDC00FFF77CFE03468DF80F309DF80F30032BE9
:10ACEC000BD10198FFF7E2FC0346002B01D00323A4
:10ACFC0000E002238DF81F3008E09DF80F30012B87
:10AD0C0001D1022300E003238DF81F309DF81F3082
:10AD1C0019460198FFF79CFC30E00198FFF7A2FD63
:10AD2C000346002B2AD00198FFF722FE0346069318
:10AD3C00069B9BB240339BB29B00ADF81630069B32
:10AD4C001846FFF793FBBDF816301846FFF74DFB7E
:10AD5C009DF80330002B11D00198FFF709FE034634
:10AD6C001846FFF713FE0490049B002B06D001221B
:10AD7C00069B02FA03F31846FFF760FB00BF09B00D
:10AD8C005DF804FBB0C8020000B583B001900198D7
:10AD9C00FFF708FD0346002B04D1094940F2B2200D
:10ADAC00FDF73AFF0198FFF781FC0346002B14BF17
:10ADBC0001230023DBB2184603B05DF804FB00BF8F
:10ADCC00B0C8020000B585B00190019A02210020A4
:10ADDC00FFF7A0FC002303930BE0039B9B00019A5D
:10ADEC0013441B68002B01D0012306E0039B0133A5
:10ADFC000393039B012BF0D90023184605B05DF893
:10AE0C0004FB000000B587B00190002305935BE0C4
:10AE1C00344A059B1344603393F90030B3F1FF3F80
:10AE2C004ED00598FFF7BEFD049001990498FFF7EA
:10AE3C00E1FC0346002B44D00598FFF7C7FD034601
:10AE4C008DF80F300498FFF746FC03468DF80E3052
:10AE5C009DF80E30022B01D1032300E002238DF864
:10AE6C000D309DF80D3019460498FFF7F1FB04984E
:10AE7C00FFF784FC0498FFF77BFD03461846FFF7A9
:10AE8C0085FD0290029B002B1BD09DF80F30032BED
:10AE9C000FD09DF80E30022B03D19DF80F30012BF3
:10AEAC0007D09DF80E30032B0BD19DF80F30022BE1
:10AEBC0007D19DF80F20029B11460498984700E09B
:10AECC0000BF059B01330593059B032BA0D901986B
:10AEDC00FFF778FF0346002B97D100BF00BF07B0E8
:10AEEC005DF804FBB81A002000B58BB00023099361
:10AEFC0001AB00221A605A604FF48073ADF81E301B
:10AF0C00012306930023089321E0BDF81E30184658
:10AF1C00FFF756FA0346002B0ED00698FFF79AFA65
:10AF2C000346002B08D0BDF81E301846FFF75DFA1B
:10AF3C00099A069B13430993069B5B000693BDF885
:10AF4C001E300433ADF81E30089B01330893089B68
:10AF5C00072BDAD94FF4BE70FFF732FA0346002BF9
:10AF6C000DD04FF4BE70FFF740FA099B43F000433D
:10AF7C00099301AB1A4602210020FFF7CBFB099B7A
:10AF8C00DBB2002B29D0012306930023089321E088
:10AF9C00069A099B1340002B16D00898FFF7AEFABF
:10AFAC0005900898FFF7BAFA03468DF81330089805
:10AFBC00FFF7ECFC0390039B002B05D09DF81320AE
:10AFCC00039B114605989847069B5B000693089BCC
:10AFDC0001330893089B072BDAD9099B002B03DA62
:10AFEC0001AB1846FFF70EFF00BF0BB05DF804FB7A
:10AFFC0008B5064B1B68002B03D105495120FDF702
:10B00C000BFE024B1B68984700BF08BD241B002099
:10B01C0008C9020000B587B003460A468DF8073010
:10B02C0013468DF8063000238DF817300023049357
:10B03C009DF807301846FEF7E6FD0490049B002BA4
:10B04C0061D19DF80630022B52D0022B5EDC002B16
:10B05C0031D0012B5AD13649049A13465B00134464
:10B06C000B441B788DF817303149049A13465B005A
:10B07C0013440B4401331B78002B0ED02D4B2E4A5E
:10B08C004FF480411846FDF783F80390039B002B87
:10B09C0003D1294A9DF8073013702549049A1346A9
:10B0AC005B0013440B4402331978244A049B134469
:10B0BC000A461A702AE01F4B1846FDF7C1F81F4AC2
:10B0CC00049B134419781A48049A13465B001344E2
:10B0DC00034402331B78994217D11549049A13463D
:10B0EC005B0013440B4402331B788DF817300CE0D3
:10B0FC000F49049A13465B0013440B4401331B782D
:10B10C008DF8173002E000BF00E000BF9DF817304B
:10B11C00002B09D00A4B1B68002B05D0084B1B6871
:10B12C009DF817201046984700BF07B05DF804FB48
:10B13C003C1B0020481900203F1B0020401B002016
:10B14C00381B002000B583B00190019B1B780221B5
:10B15C001846FFF75FFF00BF03B05DF804FB00006B
:10B16C0000B583B00C4B1B78002B0FD00023019340
:10B17C0008E0019B022B02D00198FEF781FC019B99
:10B18C0001330193019B032BF3D901E0FEF792FCF1
:10B19C0000BF03B05DF804FB341B00202DE9D04F39
:10B1AC0092B003468DF83F30002311930023109387
:10B1BC00CC4B1B78002B04D0CA4A00231370FFF72A
:10B1CC00CFFF9DF83F30172B00F23F8201A252F8BF
:10B1DC0023F000BF41B2020059B2020059B2020082
:10B1EC00F5B2020091B302000DB40200A1B402004A
:10B1FC00C1B40200D1B40200FDB402001BB50200C0
:10B20C0039B5020057B5020065B5020065B50200FC
:10B21C0065B5020065B5020065B50200F9B502001E
:10B22C0007B602001BB602002FB6020049B6020098
:10B23C0049B60200FFF794FFAB4B1846FDF700F838
:10B24C001190AA4A9DF83F301370FFE10020FEF7E1
:10B25C00CFFB0346002B0DD00020FEF711FC9DF810
:10B26C003F30022B02D14FF4E16301E04FF47A63DB
:10B27C0010930BE00020FEF7E9FB9DF83F30022B0A
:10B28C0001D1C82301E04FF4C8731093974A9DF87D
:10B29C003F301370944C109B0022009301924FF09E
:10B2AC0000024FF00003DDE900673946CB0331465D
:10B2BC0043EA51433146CA0312F57A71029143F1C4
:10B2CC00000303934FF4FA624FF00003DDE902012F
:10B2DC0000F00AFF02460B46134600221946204690
:10B2EC00FCF756FF1190B1E10020FEF781FB0346FD
:10B2FC00002B0DD00020FEF7C3FB9DF83F30032B35
:10B30C0002D14FF4487301E04FF47A6310930BE0D1
:10B31C000020FEF79BFB9DF83F30032B01D1C82387
:10B32C0001E04FF4C8731093704A9DF83F301370CE
:10B33C006D4C109B0022049305924FF000024FF0CD
:10B34C000003DDE904673946CB03314643EA514338
:10B35C003146CA0312F57A71069143F10003079343
:10B36C004FF4FA624FF00003DDE9060100F0BCFE79
:10B37C0002460B461346002219462046FCF708FFEE
:10B38C00119063E10020FEF733FB0346002B06D03F
:10B39C000020FEF775FB4FF47A63109305E0002054
:10B3AC00FEF754FB4FF4C8731093504A9DF83F308E
:10B3BC0013704D4C109B00229A4693464FF000029E
:10B3CC004FF000034FEACB3343EA5A434FEACA32F9
:10B3DC0012F57A71089143F1000309934FF4FA6264
:10B3EC004FF00003DDE9080100F07EFE02460B463B
:10B3FC001346002219462046FCF7CAFE119025E19F
:10B40C000020FEF7F5FA0346002B0CD00020FEF7C7
:10B41C0037FB9DF83F30052B01D1C82301E04FF4D9
:10B42C007A6310930BE00020FEF710FB9DF83F3081
:10B43C00052B01D1C82301E04FF4C87310932B4A9C
:10B44C009DF83F301370284C109B00229846914673
:10B45C004FF000024FF000034FEAC93343EA584360
:10B46C004FEAC83212F57A710A9143F100030B933B
:10B47C004FF4FA624FF00003DDE90A0100F034FEEC
:10B48C0002460B461346002219462046FCF780FE66
:10B49C001190DBE00020FEF733FB144A9DF83F309F
:10B4AC001370114B002240F266611846FCF770FED7
:10B4BC001190CBE00020FEF7C9FA0C4A9DF83F3002
:10B4CC001370C3E0074B01221A700120FEF718FB22
:10B4DC00054B002240F266611846FCF759FE1190AC
:10B4EC00B4E000BF2D1B0020081900202C1B0020ED
:10B4FC00594B01221A700120FEF702FB574B002218
:10B50C004FF400511846FCF743FE11909EE0524B4D
:10B51C0001221A700120FEF7F3FA504B002240F280
:10B52C0066611846FCF734FE11908FE04A4B0122FD
:10B53C001A700120FEF7E4FA484B00224FF4005138
:10B54C001846FCF725FE119080E0FEF7C6FA444A37
:10B55C009DF83F30137079E0424B1846FCF770FEB3
:10B56C0011909DF83F30C3F111031093109B002BE9
:10B57C0035D0119B002B32D1109B012B28D9394C83
:10B58C00109B9BB21A46C82302FB03F3DA171E4624
:10B59C0017464FF000024FF00003FB0343EA5643FB
:10B5AC00F20312F57A710C9143F100030D934FF4F1
:10B5BC00FA624FF00003DDE90C0100F095FD024644
:10B5CC000B461346002219462046FCF7E1FD11906C
:10B5DC000220FEF73BFA244B01221A7036E00220BF
:10B5EC00FEF74EFA204B00221A702FE0FFF7B8FD41
:10B5FC001B4A9DF83F30137028E0FFF7B1FD002087
:10B60C00FEF724FA164A9DF83F3013701EE0FFF740
:10B61C00A7FD0120FEF71AFA114A9DF83F3013706E
:10B62C0014E0FFF79DFD0020FEF710FA0120FEF755
:10B63C000DFA0B4A9DF83F30137007E0FEF74DFAF8
:10B64C00074A9DF83F30137000E000BF119B18466D
:10B65C0012B0BDE8D08F00BF2D1B002008190020B0
:10B66C002C1B002028190020341B002000B583B0AF
:10B67C000190074B1B6803F00103002B04D0054B12
:10B68C001B781846FFF78AFD00BF03B05DF804FB7A
:10B69C00301B00202C1B002000B583B00190022031
:10B6AC00FEF72EFA00BF03B05DF804FB00B585B0C1
:10B6BC0003468DF8073000230393084B1B6803F0F7
:10B6CC000103002B05D09DF807301846FFF766FDE7
:10B6DC000390039B184605B05DF804FB301B00205B
:10B6EC0000B585B001900091002303932A4A019B79
:10B6FC0013602A4A009B1360019B03F00203002B8A
:10B70C002AD00023029308E001220121029800F0C4
:10B71C0055F80390029B01330293029B002B02D13C
:10B72C00039B002BF0D0039B002B06D140F233324D
:10B73C0001211B48FCF772F80390039B002B02D1EC
:10B74C00FCF7F4F80390039B002B05D1154A00215C
:10B75C001548FCF7E3FC0390019B03F00103002B5D
:10B76C0014D00120FEF769FA039B002B05D10F4A78
:10B77C0000210F48FCF7D2FC0390039B002B05D152
:10B78C000C4A01210C48FCF7C9FC0390039B18469A
:10B79C0005B05DF804FB00BF301B0020381B0020F7
:10B7AC006CC9020051B1020068C9020079B60200EE
:10B7BC0060C90200A5B6020064C9020084B0019001
:10B7CC000B468DF8033013468DF80230002303939B
:10B7DC00019B002B3CD19DF80230012B0BD19DF825
:10B7EC000330012B04D1019BDBB20E33DBB200E042
:10B7FC0000238DF802309DF80330022B0FD0022B62
:10B80C0023DC002B16D0012B1FD11449019A1346AF
:10B81C005B0013440B449DF802201A701AE00F4988
:10B82C00019A13465B0013440B4401339DF802202C
:10B83C001A700FE00949019A13465B0013440B443C
:10B84C0002339DF802201A7004E00723039301E0F1
:10B85C0007230393039B184604B070473C1B00203E
:10B86C0072DF704700BF184673DF704700BF184681
:10B87C0000B583B001900091019B1B88262B02D14F
:10B88C000120FEF7E3F800BF03B05DF804FB0000F5
:10B89C0000B583B018220021134800F0C1FC124BF4
:10B8AC0005221A70104B00225A600F4B00221A7599
:10B8BC000D4BA0229A600C4B4FF4C8729A810A4A25
:10B8CC000A490B48FFF7CCFF0190019B0093009BAA
:10B8DC00002B04D0074A48210098FCF79FF800BFC2
:10B8EC0003B05DF804FB00BF441B00208819002046
:10B8FC0087190020B4C9020000B585B0114B1B7824
:10B90C0001211846FFF7B0FF0390039B0293029BA3
:10B91C00002B04D00C4A54210298FCF77FF802202B
:10B92C00FFF7C4FE0390039B0193019B002B04D0F3
:10B93C00054A58210198FCF771F800BF05B05DF875
:10B94C0004FB00BF87190020B4C9020000B587B002
:10B95C0000F0DCF90590059B0493049B002B04D0AC
:10B96C00144A60210498FCF759F80023019301ABA9
:10B97C001946012000F082FA0590059B0393039B66
:10B98C00002B04D00B4A66210398FCF747F801AB57
:10B99C00184600F0EBFA0590059B0293029B002BD6
:10B9AC0004D0044A6A210298FCF738F800BF07B0AB
:10B9BC005DF804FBB4C9020000B583B0002101207E
:10B9CC00FFF78EFE0190019B0093009B002B04D08F
:10B9DC00044A71210098FCF721F800BF03B05DF810
:10B9EC0004FB00BFB4C9020000B583B0FCF758FBE0
:10B9FC000190019B0093009B002B04D0044A7621FC
:10BA0C000098FCF70BF800BF03B05DF804FB00BF17
:10BA1C00B4C9020000B583B0FDF77CFA0190019B1C
:10BA2C000093009B002B04D0044A7C210098FBF768
:10BA3C00F5FF00BF03B05DF804FB00BFB4C9020002
:10BA4C0008B5FDF77DFA00BF08BD08B5FFF7CCFFC0
:10BA5C00FFF7B2FFFFF7DEFFFFF778FFFFF718FFE6
:10BA6C00FFF74AFF0320FDF7F1FFFFF7E9FFFCE7C3
:10BA7C0082B003468DF807309DF90730002B0CDBA4
:10BA8C009DF8073003F01F0205499DF907305B094B
:10BA9C00012000FA02F241F8232000BF02B07047E7
:10BAAC0000E100E082B003468DF807309DF90730C5
:10BABC00002B09DB0B4A9DF90730134493F8003334
:10BACC00DBB25B09DBB20AE0074A9DF8073003F0F2
:10BADC000F03043B13441B7EDBB25B09DBB218463D
:10BAEC0002B0704700E100E000ED00E000B583B06B
:10BAFC000190019B002B03D10449C420FDF78CF865
:10BB0C00019B5B68184603B05DF804FBF4C90200A6
:10BB1C0010DF704700BF184682B003468DF807301F
:10BB2C009DF907301F2B0CDC9DF907300F4A22FAC8
:10BB3C0003F303F00103002B14BF01230023DBB23A
:10BB4C0010E09DF907303F2B0BDC9DF90730203BB3
:10BB5C00012202FA03F3002B14BF01230023DBB2F2
:10BB6C0000E00123184602B0704700BFFC06FFBD81
:10BB7C0082B00190019B072B07D8EC22019B42FA63
:10BB8C0003F303F00103002B01D1002300E0012398
:10BB9C00184602B07047000000B583B003468DF81C
:10BBAC0007309DF907301846FFF7B6FF0346002B08
:10BBBC0002D142F201032EE09DF907301846FFF73F
:10BBCC0071FF03461846FFF7D3FF0346002B02D143
:10BBDC0042F202031FE0124B9B68002B15D09DF91B
:10BBEC0007305B090E4A52F823209DF8073003F00A
:10BBFC001F03012101FA03F319469DF907305B0974
:10BC0C000A43074941F8232004E09DF90730184600
:10BC1C00FFF72EFF0023184603B05DF804FB00BFAE
:10BC2C00741A002000B587B003468DF8073002ABBC
:10BC3C0014491846FDF7A6F917E002AB1846FFF7B2
:10BC4C0055FF0590059B1B680493059B59689DF84F
:10BC5C000720049B104698470346002B01D1112363
:10BC6C000BE002AB1846FDF7B7F902AB1846FFF72D
:10BC7C003DFF0346002BE0D10023184607B05DF8CA
:10BC8C0004FB00BFB8CA020000B587B003468DF8AC
:10BC9C00073002AB11491846FDF774F912E002ABFC
:10BCAC001846FFF723FF0590059B1B680493059B23
:10BCBC0059689DF80720049B1046984702AB18461C
:10BCCC00FDF78AF902AB1846FFF710FF0346002B6D
:10BCDC00E5D100BF00BF07B05DF804FBC4CA020089
:10BCEC0000B583B01620FFF757FF0190019B00931E
:10BCFC00009B002B04D0044AA1210098FBF78EFE78
:10BD0C0000BF03B05DF804FB5CCA020000B585B04F
:10BD1C00234B1B78002B01D008233CE0214B012244
:10BD2C001A700020FFF77EFF0346112B01D1002370
:10BD3C0031E00020FFF7A8FF1B4B1B680293002388
:10BD4C008DF807300DF107031846FCF749FB02ABE1
:10BD5C0016491846FFF7DCFE0390039B002B0CBF23
:10BD6C0001230023DAB20E4B1A709DF807301846E7
:10BD7C00FCF74CFB039B002B01D0039B0BE0094B06
:10BD8C0000221A700A4B00221A70FFF7A9FF01203B
:10BD9C00FFF77AFF0023184605B05DF804FB00BFDF
:10BDAC005C1B00205E1B0020B4CA0200457A020016
:10BDBC005D1B0020014B1B78184670475C1B002054
:10BDCC0000B585B06B4611491846FDF7DBF810E05D
:10BDDC006B461846FFF78AFE0390039B1B68029381
:10BDEC00039B5A68029B104698476B461846FDF712
:10BDFC00F3F86B461846FFF779FE0346002BE7D1A4
:10BE0C0000BF00BF05B05DF804FB00BFD0CA020044
:10BE1C0008B5FFF7D5FF00BF08BD60DF704700BF56
:10BE2C00184669DF704700BF184661DF704700BFD6
:10BE3C001846000000B583B00190019B002B03D184
:10BE4C000449C420FCF7E8FE019B5B68184603B06C
:10BE5C005DF804FBDCCA020082B00190019B002B50
:10BE6C0001D10E2304E0044B1A46019B1A600023F7
:10BE7C00184602B0704700BFD818002000B587B034
:10BE8C00034600918DF807300098FFF7E5FF059009
:10BE9C00059B002B01D0059B64E002AB0C2200211A
:10BEAC00184600F0BDF99DF807308DF808300123D5
:10BEBC008DF80A300623ADF80C30009B1A6802ABE3
:10BECC0019462020FFF7ADFF059002AB0C22002194
:10BEDC00184600F0A5F900238DF8093000238DF8E1
:10BEEC000A3000238DF80B30009B1A6802AB194600
:10BEFC004020FFF796FF059002AB0C22002118465C
:10BF0C0000F08EF900238DF80830009B1A6802AB04
:10BF1C0019460120FFF785FF059002AB0C2200218A
:10BF2C00184600F07DF9F8230293009B1A6802ABC7
:10BF3C001946A120FFF775FF059002AB0C220021DA
:10BF4C00184600F06DF99DF808306FF300038DF87A
:10BF5C000830009B1A6802AB1946A020FFF761FF5E
:10BF6C0005900023184607B05DF804FB00B585B0BA
:10BF7C000190019B1B6803930198FFF74EFF029001
:10BF8C00019B1B68039A9A42029B002B02D1044B23
:10BF9C0001221A70029B184605B05DF804FB00BF25
:10BFAC005F1B002000B597B00190234B1B7883F0EA
:10BFBC000103DBB2002B3AD13423ADF846300DF13E
:10BFCC00460202AB11461846FFF72FFF1590159B42
:10BFDC00002B03D0159B052B22D129E002AB149327
:10BFEC000FAB16491846FCF7CDFF11E00FAB184606
:10BFFC00FFF720FF1390139B1B681293139B5A6837
:10C00C00129B1146149898470FAB1846FCF7E4FFA7
:10C01C000FAB1846FFF70EFF0346002BE6D1CBE71C
:10C02C00074A40F23B111598FBF7F8FC00E000BF03
:10C03C0017B05DF804FB00BF5F1B0020A0CB020013
:10C04C0044CB020000B583B00190019B002B03D1BF
:10C05C000449C420FCF7E0FD019B5B68184603B063
:10C06C005DF804FBACCB02004BDF704700BF1846F9
:10C07C0000B589B0019004AB1846FFF7F5FF0790A7
:10C08C00079B002B03D0079B052B20D124E002AB90
:10C09C0013491846FCF776FF11E002AB1846FFF780
:10C0AC00D1FF0690069B1B680593049A069B596862
:10C0BC00059B1046984702AB1846FCF78DFF02AB68
:10C0CC001846FFF7BFFF0346002BE6D1D3E7054A1E
:10C0DC006B210798FBF7A2FC00BF09B05DF804FBCD
:10C0EC0070CC020014CC0200002B35D129B9B0FB66
:10C0FC00F2FC0CFB120260467047914215D22DE9FE
:10C10C00F041B2FA82F39A409940D3F1200C30FA04
:10C11C000CFC51EA0C01984000F04EF8280036FA5D
:10C12C0003F200210023BDE8F081F0B5B1FBF2FC75
:10C13C000CFB1211B2FA82F39A409940D3F120060B
:10C14C0030FA06F63143984000F036F86146280084
:10C15C003200DA400023F0BDF3B5B3FA83FC490892
:10C16C005FEA300013FA0CF3DCF1200432FA04F429
:10C17C0023430CB41A0000F01FF80CBC33FA0CF378
:10C18C00DCF11F0C35FA0CF518BF013D03BCA5FB07
:10C19C00026705FB0377801BB941904271EB030CDE
:10C1AC0005D3821A71EB0303681C0021F0BD020059
:10C1BC000B0028000021F0BD940D4FF6C2752D0226
:10C1CC00B5FBF4F4D60A013604FB04F5A5FB0656C0
:10C1DC00F64306EB0416550832BF002777080135E5
:10C1EC0005FB1677A6FB07477F0807EBC63714003D
:10C1FC001500E7FB02457F1B4D1C0400E7FB0145C6
:10C20C0005FB1206A64284BF013DB618964224BF18
:10C21C000135B61A704700BF00220B0011001A003E
:10C22C00844662B310F0030F04D000F8011B013AEE
:10C23C00F8D124E089B241EA012141EA0141202AE6
:10C24C0011D3203A2DE9F0030B460C460D460E4651
:10C25C000F4688468946A0E8FA03203AFBD2BDE88F
:10C26C00F00320320BD0042A05D340F8041B043A07
:10C27C0005D0042AF9D200F8011B013AFBD1604623
:10C28C00704700BF072904D90023024AC0E90031D6
:08C29C0010607047601B0020D8
:08C2A400959E0200000000005D
:08C2AC007DB802000000000053
:08C2B400BD9E02000000000025
:10C2BC00B1BF0200000000007DC0020000000000C1
:10C2CC00D8180020443A5C50524F4752414D4153CC
:10C2DC005C4E6F726469635C6E5246355F53444BBF
:10C2EC005C6E5246355F53444B5F63757272656E7C
:10C2FC00745C636F6D706F6E656E74735C6C696289
:10C30C007261726965735C627574746F6E5C617076
:10C31C00705F627574746F6E2E6300000000000015
:10C32C00701A00202D7B0200443A5C50524F475249
:10C33C00414D41535C4E6F726469635C6E5246357D
:10C34C005F53444B5C6E5246355F53444B5F637591
:10C35C007272656E745C636F6D706F6E656E747304
:10C36C005C6C69627261726965735C74696D65722B
:10C37C005C6170705F74696D6572322E63000000D1
:10C38C0001000600443A5C50524F4752414D415314
:10C39C005C4E6F726469635C6E5246355F53444BFE
:10C3AC005C6E5246355F53444B5F63757272656EBB
:10C3BC00745C636F6D706F6E656E74735C6C6962C8
:10C3CC007261726965735C7574696C5C6170705FC5
:10C3DC007574696C5F706C6174666F726D2E63003E
:10C3EC002E2E2F2E2E2F2E2E2F6E5246355F53446F
:10C3FC004B2F6E5246355F53444B5F6375727265BB
:10C40C006E742F696E746567726174696F6E2F6ECE
:10C41C007266782F6E7266785F676C75652E680031
:10C42C002E2E2F2E2E2F2E2E2F6E5246355F53442E
:10C43C004B2F6E5246355F53444B5F63757272657A
:10C44C006E742F6D6F64756C65732F6E7266782FBA
:10C45C0068616C2F6E72665F7274632E68000000E8
:10C46C00443A5C50524F4752414D41535C4E6F72AF
:10C47C006469635C6E5246355F53444B5C6E524646
:10C48C00355F53444B5F63757272656E745C636F9A
:10C49C006D706F6E656E74735C6C696272617269DB
:10C4AC0065735C74696D65725C6472765F727463DB
:10C4BC002E6300000338FDD8704700002E2E2F2E5F
:10C4CC002E2F2E2E2F6E5246355F53444B2F6E520D
:10C4DC0046355F53444B5F63757272656E742F63A0
:10C4EC006F6D706F6E656E74732F6C6962726172B2
:10C4FC006965732F6578706572696D656E74616CB2
:10C50C005F73656374696F6E5F766172732F6E72A1
:10C51C00665F73656374696F6E5F697465722E68AC
:10C52C00000000002E2E2F2E2E2F2E2E2F6E524658
:10C53C00355F53444B2F6E5246355F53444B5F630C
:10C54C00757272656E742F636F6D706F6E656E743D
:10C55C00732F6C69627261726965732F6D75746586
:10C56C00782F6E72665F6D74782E6800443A5C505A
:10C57C00524F4752414D41535C4E6F726469635C3C
:10C58C006E5246355F53444B5C6E5246355F534496
:10C59C004B5F63757272656E745C636F6D706F6EFA
:10C5AC00656E74735C6C69627261726965735C70E0
:10C5BC0077725F6D676D745C6E72665F7077725FB9
:10C5CC006D676D742E630000B4C20200B4C2020029
:10C5DC0004000000443A5C50524F4752414D4153C5
:10C5EC005C4E6F726469635C6E5246355F53444BAC
:10C5FC005C6E5246355F53444B5F63757272656E69
:10C60C00745C636F6D706F6E656E74735C6C696275
:10C61C007261726965735C6578706572696D656E5F
:10C62C0074616C5F73656374696F6E5F766172734E
:10C63C005C6E72665F73656374696F6E5F69746557
:10C64C00722E6300443A5C50524F4752414D415355
:10C65C005C4E6F726469635C6E5246355F53444B3B
:10C66C005C6E5246355F53444B5F63757272656EF8
:10C67C00745C636F6D706F6E656E74735C6C696205
:10C68C007261726965735C736F72746C6973745CDC
:10C69C006E72665F736F72746C6973742E630000D4
:10C6AC002E2E2F2E2E2F2E2E2F6E5246355F5344AC
:10C6BC004B2F6E5246355F53444B5F6375727265F8
:10C6CC006E742F6D6F64756C65732F6E7266782F38
:10C6DC0068616C2F6E72665F6770696F2E68000000
:10C6EC00443A5C50524F4752414D41535C4E6F722D
:10C6FC006469635C6E5246355F53444B5C6E5246C4
:10C70C00355F53444B5F63757272656E745C636F17
:10C71C006D706F6E656E74735C626F617264735C66
:10C72C00626F617264732E63000000000608290CAE
:10C73C00443A5C50524F4752414D41535C4E6F72DC
:10C74C006469635C6E5246355F53444B5C6E524673
:10C75C00355F53444B5F63757272656E745C696EC2
:10C76C00746567726174696F6E5C6E7266785C6C0E
:10C77C0065676163795C6E72665F6472765F636C29
:10C78C006F636B2E630000002E2E2F2E2E2F2E2E5D
:10C79C002F6E5246355F53444B2F6E5246355F53C6
:10C7AC00444B5F63757272656E742F696E74656746
:10C7BC00726174696F6E2F6E7266782F6E72667806
:10C7CC005F676C75652E6800443A5C50524F475257
:10C7DC00414D41535C4E6F726469635C6E524635D9
:10C7EC005F53444B5C6E5246355F53444B5F6375ED
:10C7FC007272656E745C6D6F64756C65735C6E7271
:10C80C0066785C647269766572735C7372635C6E75
:10C81C007266785F636C6F636B2E63002E2E2F2E07
:10C82C002E2F2E2E2F6E5246355F53444B2F6E52A9
:10C83C0046355F53444B5F63757272656E742F6936
:10C84C006E746567726174696F6E2F6E7266782F85
:10C85C006E7266785F676C75652E68002E2E2F2EB3
:10C86C002E2F2E2E2F6E5246355F53444B2F6E5269
:10C87C0046355F53444B5F63757272656E742F6DF2
:10C88C006F64756C65732F6E7266782F68616C2F90
:10C89C006E72665F6770696F2E6800000000005052
:10C8AC0000030050443A5C50524F4752414D4153A3
:10C8BC005C4E6F726469635C6E5246355F53444BD9
:10C8CC005C6E5246355F53444B5F63757272656E96
:10C8DC00745C6D6F64756C65735C6E7266785C64A9
:10C8EC007269766572735C7372635C6E7266785F84
:10C8FC006770696F74652E6300000000443A5C50E9
:10C90C00524F4752414D41535C4E6F726469635CA8
:10C91C006E5246355F53444B5C6E5246355F534402
:10C92C004B5F63757272656E745C6D6F64756C656C
:10C93C00735C6E7266785C647269766572735C7334
:10C94C0072635C7072735C6E7266785F7072732E59
:10C95C006300000008190020281900204819002045
:10C96C002600030021B002002E2E2F2E2E2F2E2E4D
:10C97C002F6E5246355F53444B2F6E5246355F53E4
:10C98C00444B5F63757272656E742F6D6F64756C5A
:10C99C0065732F6E7266782F68616C2F6E72665F8E
:10C9AC006770696F2E680000443A5C50524F4752D2
:10C9BC00414D41535C4E6F726469635C50726F6A97
:10C9CC00656374735C4C4657555F424C4554585CD8
:10C9DC006170705F6C6677755F626C6574785C6DA6
:10C9EC0061696E2E630000002E2E2F2E2E2F2E2E00
:10C9FC002F6E5246355F53444B2F6E5246355F5364
:10CA0C00444B5F63757272656E742F636F6D706FDC
:10CA1C006E656E74732F6C69627261726965732FC7
:10CA2C006578706572696D656E74616C5F73656352
:10CA3C0074696F6E5F766172732F6E72665F736569
:10CA4C006374696F6E5F697465722E680000000014
:10CA5C00443A5C50524F4752414D41535C4E6F72B9
:10CA6C006469635C6E5246355F53444B5C6E524650
:10CA7C00355F53444B5F63757272656E745C636FA4
:10CA8C006D706F6E656E74735C736F6674646576CF
:10CA9C006963655C636F6D6D6F6E5C6E72665F7300
:10CAAC0064682E630000000001000007B4C202009D
:10CABC00B4C2020008000000B4C20200BCC20200F2
